{
  "_format": "hh-sol-artifact-1",
  "contractName": "land",
  "sourceName": "contracts/land.sol",
  "abi": [
    {
      "anonymous": false,
      "inputs": [
        {
          "indexed": false,
          "internalType": "uint256",
          "name": "uniqueId",
          "type": "uint256"
        },
        {
          "indexed": false,
          "internalType": "address",
          "name": "owner",
          "type": "address"
        },
        {
          "indexed": false,
          "internalType": "uint256",
          "name": "price",
          "type": "uint256"
        }
      ],
      "name": "LandAdded",
      "type": "event"
    },
    {
      "anonymous": false,
      "inputs": [
        {
          "indexed": false,
          "internalType": "uint256",
          "name": "uniqueId",
          "type": "uint256"
        },
        {
          "indexed": false,
          "internalType": "address",
          "name": "buyer",
          "type": "address"
        },
        {
          "indexed": false,
          "internalType": "uint256",
          "name": "price",
          "type": "uint256"
        }
      ],
      "name": "LandPurchased",
      "type": "event"
    },
    {
      "inputs": [
        {
          "internalType": "uint256",
          "name": "_uniqueId",
          "type": "uint256"
        },
        {
          "internalType": "string",
          "name": "_location",
          "type": "string"
        },
        {
          "internalType": "uint256",
          "name": "_area",
          "type": "uint256"
        },
        {
          "internalType": "uint256",
          "name": "_price",
          "type": "uint256"
        }
      ],
      "name": "addLand",
      "outputs": [],
      "stateMutability": "nonpayable",
      "type": "function"
    },
    {
      "inputs": [
        {
          "internalType": "uint256",
          "name": "_uniqueId",
          "type": "uint256"
        },
        {
          "internalType": "string",
          "name": "_message",
          "type": "string"
        }
      ],
      "name": "buyLand",
      "outputs": [],
      "stateMutability": "payable",
      "type": "function"
    },
    {
      "inputs": [
        {
          "internalType": "uint256",
          "name": "_uniqueId",
          "type": "uint256"
        },
        {
          "internalType": "uint256",
          "name": "_newPrice",
          "type": "uint256"
        }
      ],
      "name": "changeLandPrice",
      "outputs": [],
      "stateMutability": "nonpayable",
      "type": "function"
    },
    {
      "inputs": [],
      "name": "getAllLands",
      "outputs": [
        {
          "components": [
            {
              "internalType": "uint256",
              "name": "uniqueId",
              "type": "uint256"
            },
            {
              "internalType": "string",
              "name": "location",
              "type": "string"
            },
            {
              "internalType": "uint256",
              "name": "area",
              "type": "uint256"
            },
            {
              "internalType": "address",
              "name": "owner",
              "type": "address"
            },
            {
              "internalType": "uint256",
              "name": "price",
              "type": "uint256"
            }
          ],
          "internalType": "struct land.Land[]",
          "name": "",
          "type": "tuple[]"
        }
      ],
      "stateMutability": "view",
      "type": "function"
    },
    {
      "inputs": [],
      "name": "getAllTransactions",
      "outputs": [
        {
          "components": [
            {
              "internalType": "address",
              "name": "from",
              "type": "address"
            },
            {
              "internalType": "address",
              "name": "to",
              "type": "address"
            },
            {
              "internalType": "uint256",
              "name": "timestamp",
              "type": "uint256"
            },
            {
              "internalType": "string",
              "name": "message",
              "type": "string"
            },
            {
              "internalType": "uint256",
              "name": "landId",
              "type": "uint256"
            }
          ],
          "internalType": "struct land.Transaction[]",
          "name": "",
          "type": "tuple[]"
        }
      ],
      "stateMutability": "view",
      "type": "function"
    },
    {
      "inputs": [
        {
          "internalType": "address",
          "name": "_owner",
          "type": "address"
        }
      ],
      "name": "getLandsByOwner",
      "outputs": [
        {
          "internalType": "uint256[]",
          "name": "",
          "type": "uint256[]"
        }
      ],
      "stateMutability": "view",
      "type": "function"
    },
    {
      "inputs": [
        {
          "internalType": "uint256",
          "name": "_uniqueId",
          "type": "uint256"
        }
      ],
      "name": "getTransactionHistory",
      "outputs": [
        {
          "internalType": "uint256[]",
          "name": "",
          "type": "uint256[]"
        }
      ],
      "stateMutability": "view",
      "type": "function"
    },
    {
      "inputs": [
        {
          "internalType": "uint256",
          "name": "",
          "type": "uint256"
        }
      ],
      "name": "landOwners",
      "outputs": [
        {
          "internalType": "address",
          "name": "",
          "type": "address"
        }
      ],
      "stateMutability": "view",
      "type": "function"
    },
    {
      "inputs": [
        {
          "internalType": "uint256",
          "name": "",
          "type": "uint256"
        }
      ],
      "name": "lands",
      "outputs": [
        {
          "internalType": "uint256",
          "name": "uniqueId",
          "type": "uint256"
        },
        {
          "internalType": "string",
          "name": "location",
          "type": "string"
        },
        {
          "internalType": "uint256",
          "name": "area",
          "type": "uint256"
        },
        {
          "internalType": "address",
          "name": "owner",
          "type": "address"
        },
        {
          "internalType": "uint256",
          "name": "price",
          "type": "uint256"
        }
      ],
      "stateMutability": "view",
      "type": "function"
    },
    {
      "inputs": [
        {
          "internalType": "uint256",
          "name": "",
          "type": "uint256"
        }
      ],
      "name": "transactionHistory",
      "outputs": [
        {
          "internalType": "address",
          "name": "from",
          "type": "address"
        },
        {
          "internalType": "address",
          "name": "to",
          "type": "address"
        },
        {
          "internalType": "uint256",
          "name": "timestamp",
          "type": "uint256"
        },
        {
          "internalType": "string",
          "name": "message",
          "type": "string"
        },
        {
          "internalType": "uint256",
          "name": "landId",
          "type": "uint256"
        }
      ],
      "stateMutability": "view",
      "type": "function"
    }
  ],
  "bytecode": "0x608060405234801561001057600080fd5b50612338806100206000396000f3fe6080604052600436106100915760003560e01c806388060d911161005957806388060d9114610198578063b7b6e543146101c1578063d9bc25e0146101ec578063e261f1e514610215578063f692f5e71461025657610091565b8063135f71c4146100965780631a0f76b1146100b2578063243e7a87146100ef57806327506f5314610130578063455b9d231461015b575b600080fd5b6100b060048036038101906100ab919061157b565b610293565b005b3480156100be57600080fd5b506100d960048036038101906100d491906115d7565b6107d4565b6040516100e69190611645565b60405180910390f35b3480156100fb57600080fd5b50610116600480360381019061011191906115d7565b610807565b6040516101279594939291906116ee565b60405180910390f35b34801561013c57600080fd5b50610145610915565b60405161015291906118e8565b60405180910390f35b34801561016757600080fd5b50610182600480360381019061017d9190611936565b610ac6565b60405161018f9190611a12565b60405180910390f35b3480156101a457600080fd5b506101bf60048036038101906101ba9190611a34565b610c8e565b005b3480156101cd57600080fd5b506101d6610ea8565b6040516101e39190611bef565b60405180910390f35b3480156101f857600080fd5b50610213600480360381019061020e9190611c11565b61100d565b005b34801561022157600080fd5b5061023c600480360381019061023791906115d7565b6111cd565b60405161024d959493929190611c51565b60405180910390f35b34801561026257600080fd5b5061027d600480360381019061027891906115d7565b6112bb565b60405161028a9190611a12565b60405180910390f35b600073ffffffffffffffffffffffffffffffffffffffff166002600084815260200190815260200160002060009054906101000a900473ffffffffffffffffffffffffffffffffffffffff1673ffffffffffffffffffffffffffffffffffffffff1603610335576040517f08c379a000000000000000000000000000000000000000000000000000000000815260040161032c90611cf7565b60405180910390fd5b6001828154811061034957610348611d17565b5b90600052602060002090600502016004015434101561039d576040517f08c379a000000000000000000000000000000000000000000000000000000000815260040161039490611d92565b60405180910390fd5b600182815481106103b1576103b0611d17565b5b906000526020600020906005020160030160009054906101000a900473ffffffffffffffffffffffffffffffffffffffff1673ffffffffffffffffffffffffffffffffffffffff163373ffffffffffffffffffffffffffffffffffffffff1603610450576040517f08c379a000000000000000000000000000000000000000000000000000000000815260040161044790611e24565b60405180910390fd5b60006002600084815260200190815260200160002060009054906101000a900473ffffffffffffffffffffffffffffffffffffffff16905060003390506000600185815481106104a3576104a2611d17565b5b906000526020600020906005020160040154346104c09190611e73565b905081600186815481106104d7576104d6611d17565b5b906000526020600020906005020160030160006101000a81548173ffffffffffffffffffffffffffffffffffffffff021916908373ffffffffffffffffffffffffffffffffffffffff160217905550816002600087815260200190815260200160002060006101000a81548173ffffffffffffffffffffffffffffffffffffffff021916908373ffffffffffffffffffffffffffffffffffffffff16021790555060006040518060a001604052808573ffffffffffffffffffffffffffffffffffffffff1681526020018473ffffffffffffffffffffffffffffffffffffffff16815260200142815260200186815260200187815250908060018154018082558091505060019003906000526020600020906005020160009091909190915060008201518160000160006101000a81548173ffffffffffffffffffffffffffffffffffffffff021916908373ffffffffffffffffffffffffffffffffffffffff16021790555060208201518160010160006101000a81548173ffffffffffffffffffffffffffffffffffffffff021916908373ffffffffffffffffffffffffffffffffffffffff1602179055506040820151816002015560608201518160030190816106a391906120b3565b506080820151816004015550508273ffffffffffffffffffffffffffffffffffffffff166108fc600187815481106106de576106dd611d17565b5b9060005260206000209060050201600401549081150290604051600060405180830381858888f1935050505015801561071b573d6000803e3d6000fd5b50600081111561076d578173ffffffffffffffffffffffffffffffffffffffff166108fc829081150290604051600060405180830381858888f1935050505015801561076b573d6000803e3d6000fd5b505b7f2cad7e5f3dfae0be77bc989eebfd6a286bd6926d16f48d2b3b5a7ad63415285f8533600188815481106107a4576107a3611d17565b5b9060005260206000209060050201600401546040516107c593929190612185565b60405180910390a15050505050565b60026020528060005260406000206000915054906101000a900473ffffffffffffffffffffffffffffffffffffffff1681565b6000818154811061081757600080fd5b90600052602060002090600502016000915090508060000160009054906101000a900473ffffffffffffffffffffffffffffffffffffffff16908060010160009054906101000a900473ffffffffffffffffffffffffffffffffffffffff169080600201549080600301805461088c90611ed6565b80601f01602080910402602001604051908101604052809291908181526020018280546108b890611ed6565b80156109055780601f106108da57610100808354040283529160200191610905565b820191906000526020600020905b8154815290600101906020018083116108e857829003601f168201915b5050505050908060040154905085565b60606000805480602002602001604051908101604052809291908181526020016000905b82821015610abd57838290600052602060002090600502016040518060a00160405290816000820160009054906101000a900473ffffffffffffffffffffffffffffffffffffffff1673ffffffffffffffffffffffffffffffffffffffff1673ffffffffffffffffffffffffffffffffffffffff1681526020016001820160009054906101000a900473ffffffffffffffffffffffffffffffffffffffff1673ffffffffffffffffffffffffffffffffffffffff1673ffffffffffffffffffffffffffffffffffffffff16815260200160028201548152602001600382018054610a2290611ed6565b80601f0160208091040260200160405190810160405280929190818152602001828054610a4e90611ed6565b8015610a9b5780601f10610a7057610100808354040283529160200191610a9b565b820191906000526020600020905b815481529060010190602001808311610a7e57829003601f168201915b5050505050815260200160048201548152505081526020019060010190610939565b50505050905090565b60606000805b600180549050811015610b6d578373ffffffffffffffffffffffffffffffffffffffff1660018281548110610b0457610b03611d17565b5b906000526020600020906005020160030160009054906101000a900473ffffffffffffffffffffffffffffffffffffffff1673ffffffffffffffffffffffffffffffffffffffff1603610b60578180610b5c906121bc565b9250505b8080600101915050610acc565b5060008167ffffffffffffffff811115610b8a57610b89611450565b5b604051908082528060200260200182016040528015610bb85781602001602082028036833780820191505090505b5090506000915060005b600180549050811015610c83578473ffffffffffffffffffffffffffffffffffffffff1660018281548110610bfa57610bf9611d17565b5b906000526020600020906005020160030160009054906101000a900473ffffffffffffffffffffffffffffffffffffffff1673ffffffffffffffffffffffffffffffffffffffff1603610c765780828481518110610c5b57610c5a611d17565b5b6020026020010181815250508280610c72906121bc565b9350505b8080600101915050610bc2565b508092505050919050565b600073ffffffffffffffffffffffffffffffffffffffff166002600086815260200190815260200160002060009054906101000a900473ffffffffffffffffffffffffffffffffffffffff1673ffffffffffffffffffffffffffffffffffffffff1614610d30576040517f08c379a0000000000000000000000000000000000000000000000000000000008152600401610d2790612250565b60405180910390fd5b60016040518060a001604052808681526020018581526020018481526020013373ffffffffffffffffffffffffffffffffffffffff168152602001838152509080600181540180825580915050600190039060005260206000209060050201600090919091909150600082015181600001556020820151816001019081610db791906120b3565b506040820151816002015560608201518160030160006101000a81548173ffffffffffffffffffffffffffffffffffffffff021916908373ffffffffffffffffffffffffffffffffffffffff160217905550608082015181600401555050336002600086815260200190815260200160002060006101000a81548173ffffffffffffffffffffffffffffffffffffffff021916908373ffffffffffffffffffffffffffffffffffffffff1602179055507f5713491f1d31ec27bd9a43113bf073a98e7a3c1ab3095c5cc1a0a79fa731d008843383604051610e9a93929190612185565b60405180910390a150505050565b60606001805480602002602001604051908101604052809291908181526020016000905b8282101561100457838290600052602060002090600502016040518060a001604052908160008201548152602001600182018054610f0990611ed6565b80601f0160208091040260200160405190810160405280929190818152602001828054610f3590611ed6565b8015610f825780601f10610f5757610100808354040283529160200191610f82565b820191906000526020600020905b815481529060010190602001808311610f6557829003601f168201915b50505050508152602001600282015481526020016003820160009054906101000a900473ffffffffffffffffffffffffffffffffffffffff1673ffffffffffffffffffffffffffffffffffffffff1673ffffffffffffffffffffffffffffffffffffffff16815260200160048201548152505081526020019060010190610ecc565b50505050905090565b816001818154811061102257611021611d17565b5b906000526020600020906005020160030160009054906101000a900473ffffffffffffffffffffffffffffffffffffffff1673ffffffffffffffffffffffffffffffffffffffff163373ffffffffffffffffffffffffffffffffffffffff16146110c1576040517f08c379a00000000000000000000000000000000000000000000000000000000081526004016110b8906122e2565b60405180910390fd5b600073ffffffffffffffffffffffffffffffffffffffff166002600085815260200190815260200160002060009054906101000a900473ffffffffffffffffffffffffffffffffffffffff1673ffffffffffffffffffffffffffffffffffffffff1603611163576040517f08c379a000000000000000000000000000000000000000000000000000000000815260040161115a90611cf7565b60405180910390fd5b816001848154811061117857611177611d17565b5b9060005260206000209060050201600401819055507f5713491f1d31ec27bd9a43113bf073a98e7a3c1ab3095c5cc1a0a79fa731d0088333846040516111c093929190612185565b60405180910390a1505050565b600181815481106111dd57600080fd5b906000526020600020906005020160009150905080600001549080600101805461120690611ed6565b80601f016020809104026020016040519081016040528092919081815260200182805461123290611ed6565b801561127f5780601f106112545761010080835404028352916020019161127f565b820191906000526020600020905b81548152906001019060200180831161126257829003601f168201915b5050505050908060020154908060030160009054906101000a900473ffffffffffffffffffffffffffffffffffffffff16908060040154905085565b60606000805b6000805490508110156113165783600082815481106112e3576112e2611d17565b5b90600052602060002090600502016004015403611309578180611305906121bc565b9250505b80806001019150506112c1565b5060008167ffffffffffffffff81111561133357611332611450565b5b6040519080825280602002602001820160405280156113615781602001602082028036833780820191505090505b5090506000915060005b6000805490508110156113e057846000828154811061138d5761138c611d17565b5b906000526020600020906005020160040154036113d357808284815181106113b8576113b7611d17565b5b60200260200101818152505082806113cf906121bc565b9350505b808060010191505061136b565b508092505050919050565b6000604051905090565b600080fd5b600080fd5b6000819050919050565b611412816113ff565b811461141d57600080fd5b50565b60008135905061142f81611409565b92915050565b600080fd5b600080fd5b6000601f19601f8301169050919050565b7f4e487b7100000000000000000000000000000000000000000000000000000000600052604160045260246000fd5b6114888261143f565b810181811067ffffffffffffffff821117156114a7576114a6611450565b5b80604052505050565b60006114ba6113eb565b90506114c6828261147f565b919050565b600067ffffffffffffffff8211156114e6576114e5611450565b5b6114ef8261143f565b9050602081019050919050565b82818337600083830152505050565b600061151e611519846114cb565b6114b0565b90508281526020810184848401111561153a5761153961143a565b5b6115458482856114fc565b509392505050565b600082601f83011261156257611561611435565b5b813561157284826020860161150b565b91505092915050565b60008060408385031215611592576115916113f5565b5b60006115a085828601611420565b925050602083013567ffffffffffffffff8111156115c1576115c06113fa565b5b6115cd8582860161154d565b9150509250929050565b6000602082840312156115ed576115ec6113f5565b5b60006115fb84828501611420565b91505092915050565b600073ffffffffffffffffffffffffffffffffffffffff82169050919050565b600061162f82611604565b9050919050565b61163f81611624565b82525050565b600060208201905061165a6000830184611636565b92915050565b611669816113ff565b82525050565b600081519050919050565b600082825260208201905092915050565b60005b838110156116a957808201518184015260208101905061168e565b60008484015250505050565b60006116c08261166f565b6116ca818561167a565b93506116da81856020860161168b565b6116e38161143f565b840191505092915050565b600060a0820190506117036000830188611636565b6117106020830187611636565b61171d6040830186611660565b818103606083015261172f81856116b5565b905061173e6080830184611660565b9695505050505050565b600081519050919050565b600082825260208201905092915050565b6000819050602082019050919050565b61177d81611624565b82525050565b61178c816113ff565b82525050565b600082825260208201905092915050565b60006117ae8261166f565b6117b88185611792565b93506117c881856020860161168b565b6117d18161143f565b840191505092915050565b600060a0830160008301516117f46000860182611774565b5060208301516118076020860182611774565b50604083015161181a6040860182611783565b506060830151848203606086015261183282826117a3565b91505060808301516118476080860182611783565b508091505092915050565b600061185e83836117dc565b905092915050565b6000602082019050919050565b600061187e82611748565b6118888185611753565b93508360208202850161189a85611764565b8060005b858110156118d657848403895281516118b78582611852565b94506118c283611866565b925060208a0199505060018101905061189e565b50829750879550505050505092915050565b600060208201905081810360008301526119028184611873565b905092915050565b61191381611624565b811461191e57600080fd5b50565b6000813590506119308161190a565b92915050565b60006020828403121561194c5761194b6113f5565b5b600061195a84828501611921565b91505092915050565b600081519050919050565b600082825260208201905092915050565b6000819050602082019050919050565b600061199b8383611783565b60208301905092915050565b6000602082019050919050565b60006119bf82611963565b6119c9818561196e565b93506119d48361197f565b8060005b83811015611a055781516119ec888261198f565b97506119f7836119a7565b9250506001810190506119d8565b5085935050505092915050565b60006020820190508181036000830152611a2c81846119b4565b905092915050565b60008060008060808587031215611a4e57611a4d6113f5565b5b6000611a5c87828801611420565b945050602085013567ffffffffffffffff811115611a7d57611a7c6113fa565b5b611a898782880161154d565b9350506040611a9a87828801611420565b9250506060611aab87828801611420565b91505092959194509250565b600081519050919050565b600082825260208201905092915050565b6000819050602082019050919050565b600060a083016000830151611afb6000860182611783565b5060208301518482036020860152611b1382826117a3565b9150506040830151611b286040860182611783565b506060830151611b3b6060860182611774565b506080830151611b4e6080860182611783565b508091505092915050565b6000611b658383611ae3565b905092915050565b6000602082019050919050565b6000611b8582611ab7565b611b8f8185611ac2565b935083602082028501611ba185611ad3565b8060005b85811015611bdd5784840389528151611bbe8582611b59565b9450611bc983611b6d565b925060208a01995050600181019050611ba5565b50829750879550505050505092915050565b60006020820190508181036000830152611c098184611b7a565b905092915050565b60008060408385031215611c2857611c276113f5565b5b6000611c3685828601611420565b9250506020611c4785828601611420565b9150509250929050565b600060a082019050611c666000830188611660565b8181036020830152611c7881876116b5565b9050611c876040830186611660565b611c946060830185611636565b611ca16080830184611660565b9695505050505050565b7f4c616e642077697468207468697320494420646f6573206e6f74206578697374600082015250565b6000611ce160208361167a565b9150611cec82611cab565b602082019050919050565b60006020820190508181036000830152611d1081611cd4565b9050919050565b7f4e487b7100000000000000000000000000000000000000000000000000000000600052603260045260246000fd5b7f496e73756666696369656e742066756e64730000000000000000000000000000600082015250565b6000611d7c60128361167a565b9150611d8782611d46565b602082019050919050565b60006020820190508181036000830152611dab81611d6f565b9050919050565b7f596f752061726520616c726561647920746865206f776e6572206f662074686960008201527f73206c616e640000000000000000000000000000000000000000000000000000602082015250565b6000611e0e60268361167a565b9150611e1982611db2565b604082019050919050565b60006020820190508181036000830152611e3d81611e01565b9050919050565b7f4e487b7100000000000000000000000000000000000000000000000000000000600052601160045260246000fd5b6000611e7e826113ff565b9150611e89836113ff565b9250828203905081811115611ea157611ea0611e44565b5b92915050565b7f4e487b7100000000000000000000000000000000000000000000000000000000600052602260045260246000fd5b60006002820490506001821680611eee57607f821691505b602082108103611f0157611f00611ea7565b5b50919050565b60008190508160005260206000209050919050565b60006020601f8301049050919050565b600082821b905092915050565b600060088302611f697fffffffffffffffffffffffffffffffffffffffffffffffffffffffffffffffff82611f2c565b611f738683611f2c565b95508019841693508086168417925050509392505050565b6000819050919050565b6000611fb0611fab611fa6846113ff565b611f8b565b6113ff565b9050919050565b6000819050919050565b611fca83611f95565b611fde611fd682611fb7565b848454611f39565b825550505050565b600090565b611ff3611fe6565b611ffe818484611fc1565b505050565b5b8181101561202257612017600082611feb565b600181019050612004565b5050565b601f8211156120675761203881611f07565b61204184611f1c565b81016020851015612050578190505b61206461205c85611f1c565b830182612003565b50505b505050565b600082821c905092915050565b600061208a6000198460080261206c565b1980831691505092915050565b60006120a38383612079565b9150826002028217905092915050565b6120bc8261166f565b67ffffffffffffffff8111156120d5576120d4611450565b5b6120df8254611ed6565b6120ea828285612026565b600060209050601f83116001811461211d576000841561210b578287015190505b6121158582612097565b86555061217d565b601f19841661212b86611f07565b60005b828110156121535784890151825560018201915060208501945060208101905061212e565b86831015612170578489015161216c601f891682612079565b8355505b6001600288020188555050505b505050505050565b600060608201905061219a6000830186611660565b6121a76020830185611636565b6121b46040830184611660565b949350505050565b60006121c7826113ff565b91507fffffffffffffffffffffffffffffffffffffffffffffffffffffffffffffffff82036121f9576121f8611e44565b5b600182019050919050565b7f4c616e642077697468207468697320494420616c726561647920657869737473600082015250565b600061223a60208361167a565b915061224582612204565b602082019050919050565b600060208201905081810360008301526122698161222d565b9050919050565b7f596f7520617265206e6f7420746865206f776e6572206f662074686973206c6160008201527f6e64000000000000000000000000000000000000000000000000000000000000602082015250565b60006122cc60228361167a565b91506122d782612270565b604082019050919050565b600060208201905081810360008301526122fb816122bf565b905091905056fea2646970667358221220cdd91d8e258f19b56500dda94d7ccece554668650468ea421375d8f333541f8d64736f6c63430008180033",
  "linkReferences": {},
  "deployedLinkReferences": {}
}